{
  "transactions": [
    {
      "hash": "0x545e4f796c12a990ad37241ac287f51c9d96a8b7cb6c2617bae088f38a2e185d",
      "transactionType": "CALL",
      "contractName": null,
      "contractAddress": "0x4200000000000000000000000000000000000006",
      "function": "approve(address,uint256)",
      "arguments": [
        "0x000000000022D473030F116dDEE9F6B43aC78BA3",
        "115792089237316195423570985008687907853269984665640564039457584007913129639935"
      ],
      "transaction": {
        "from": "0x7f05b257ce2199df8c2a9d7e9ff6ebea0eff8abf",
        "to": "0x4200000000000000000000000000000000000006",
        "gas": "0x10868",
        "value": "0x0",
        "input": "0x095ea7b3000000000000000000000000000000000022d473030f116ddee9f6b43ac78ba3ffffffffffffffffffffffffffffffffffffffffffffffffffffffffffffffff",
        "nonce": "0x5",
        "chainId": "0x2105"
      },
      "additionalContracts": [],
      "isFixedGasLimit": false
    },
    {
      "hash": "0xad50b9ab61c90aaa07c03d011d5f3472e0bdd7ca3a5abeea3438ca0105730571",
      "transactionType": "CALL",
      "contractName": null,
      "contractAddress": "0x833589fcd6edb6e08f4c7c32d4f71b54bda02913",
      "function": "approve(address,uint256)",
      "arguments": [
        "0x000000000022D473030F116dDEE9F6B43aC78BA3",
        "115792089237316195423570985008687907853269984665640564039457584007913129639935"
      ],
      "transaction": {
        "from": "0x7f05b257ce2199df8c2a9d7e9ff6ebea0eff8abf",
        "to": "0x833589fcd6edb6e08f4c7c32d4f71b54bda02913",
        "gas": "0x12ca9",
        "value": "0x0",
        "input": "0x095ea7b3000000000000000000000000000000000022d473030f116ddee9f6b43ac78ba3ffffffffffffffffffffffffffffffffffffffffffffffffffffffffffffffff",
        "nonce": "0x6",
        "chainId": "0x2105"
      },
      "additionalContracts": [],
      "isFixedGasLimit": false
    },
    {
      "hash": "0x16b7ccb7b2396b064ecc14db2ab41ed583c53f10b38fffc35bb944a033b8a203",
      "transactionType": "CALL",
      "contractName": null,
      "contractAddress": "0x000000000022d473030f116ddee9f6b43ac78ba3",
      "function": "approve(address,address,uint160,uint48)",
      "arguments": [
        "0x4200000000000000000000000000000000000006",
        "0x7C5f5A4bBd8fD63184577525326123B519429bDc",
        "1461501637330902918203684832716283019655932542975",
        "281474976710655"
      ],
      "transaction": {
        "from": "0x7f05b257ce2199df8c2a9d7e9ff6ebea0eff8abf",
        "to": "0x000000000022d473030f116ddee9f6b43ac78ba3",
        "gas": "0x10ff1",
        "value": "0x0",
        "input": "0x87517c4500000000000000000000000042000000000000000000000000000000000000060000000000000000000000007c5f5a4bbd8fd63184577525326123b519429bdc000000000000000000000000ffffffffffffffffffffffffffffffffffffffff0000000000000000000000000000000000000000000000000000ffffffffffff",
        "nonce": "0x7",
        "chainId": "0x2105"
      },
      "additionalContracts": [],
      "isFixedGasLimit": false
    },
    {
      "hash": "0x6c62a1bfdc4fcff46de75f51b88bac3f5eb56482a49342ac0ea993625ef7f523",
      "transactionType": "CALL",
      "contractName": null,
      "contractAddress": "0x000000000022d473030f116ddee9f6b43ac78ba3",
      "function": "approve(address,address,uint160,uint48)",
      "arguments": [
        "0x833589fCD6eDb6E08f4c7C32D4f71b54bdA02913",
        "0x7C5f5A4bBd8fD63184577525326123B519429bDc",
        "1461501637330902918203684832716283019655932542975",
        "281474976710655"
      ],
      "transaction": {
        "from": "0x7f05b257ce2199df8c2a9d7e9ff6ebea0eff8abf",
        "to": "0x000000000022d473030f116ddee9f6b43ac78ba3",
        "gas": "0x1112d",
        "value": "0x0",
        "input": "0x87517c45000000000000000000000000833589fcd6edb6e08f4c7c32d4f71b54bda029130000000000000000000000007c5f5a4bbd8fd63184577525326123b519429bdc000000000000000000000000ffffffffffffffffffffffffffffffffffffffff0000000000000000000000000000000000000000000000000000ffffffffffff",
        "nonce": "0x8",
        "chainId": "0x2105"
      },
      "additionalContracts": [],
      "isFixedGasLimit": false
    },
    {
      "hash": "0x1c18d905c5996a79984476ccb0f3e7db442bd4cd5a58b7e4c472926febe452ab",
      "transactionType": "CALL",
      "contractName": null,
      "contractAddress": "0x7c5f5a4bbd8fd63184577525326123b519429bdc",
      "function": "modifyLiquidities(bytes,uint256)",
      "arguments": [
        "0x000000000000000000000000000000000000000000000000000000000000004000000000000000000000000000000000000000000000000000000000000000800000000000000000000000000000000000000000000000000000000000000002020d00000000000000000000000000000000000000000000000000000000000000000000000000000000000000000000000000000000000000000000000000020000000000000000000000000000000000000000000000000000000000000040000000000000000000000000000000000000000000000000000000000000020000000000000000000000000000000000000000000000000000000000000001a00000000000000000000000004200000000000000000000000000000000000006000000000000000000000000833589fcd6edb6e08f4c7c32d4f71b54bda029130000000000000000000000000000000000000000000000000000000000000bb8000000000000000000000000000000000000000000000000000000000000003c000000000000000000000000825fc7ac1e5456674d7dbbb4d12467e8253740c000000000000000000000000000000000000000000000000000000000000081d8000000000000000000000000000000000000000000000000000000000001e168000000000000000000000000000000000000000000000000000000000000da5200000000000000000000000000000000000000000000000000038d7ea4c6800100000000000000000000000000000000000000000000000000000000002625a10000000000000000000000007f05b257ce2199df8c2a9d7e9ff6ebea0eff8abf0000000000000000000000000000000000000000000000000000000000000180000000000000000000000000000000000000000000000000000000000000000000000000000000000000000000000000000000000000000000000000000000400000000000000000000000004200000000000000000000000000000000000006000000000000000000000000833589fcd6edb6e08f4c7c32d4f71b54bda02913",
        "1770413209"
      ],
      "transaction": {
        "from": "0x7f05b257ce2199df8c2a9d7e9ff6ebea0eff8abf",
        "to": "0x7c5f5a4bbd8fd63184577525326123b519429bdc",
        "gas": "0x8e897",
        "value": "0x0",
        "input": "0xdd46508f00000000000000000000000000000000000000000000000000000000000000400000000000000000000000000000000000000000000000000000000069865c990000000000000000000000000000000000000000000000000000000000000300000000000000000000000000000000000000000000000000000000000000004000000000000000000000000000000000000000000000000000000000000000800000000000000000000000000000000000000000000000000000000000000002020d00000000000000000000000000000000000000000000000000000000000000000000000000000000000000000000000000000000000000000000000000020000000000000000000000000000000000000000000000000000000000000040000000000000000000000000000000000000000000000000000000000000020000000000000000000000000000000000000000000000000000000000000001a00000000000000000000000004200000000000000000000000000000000000006000000000000000000000000833589fcd6edb6e08f4c7c32d4f71b54bda029130000000000000000000000000000000000000000000000000000000000000bb8000000000000000000000000000000000000000000000000000000000000003c000000000000000000000000825fc7ac1e5456674d7dbbb4d12467e8253740c000000000000000000000000000000000000000000000000000000000000081d8000000000000000000000000000000000000000000000000000000000001e168000000000000000000000000000000000000000000000000000000000000da5200000000000000000000000000000000000000000000000000038d7ea4c6800100000000000000000000000000000000000000000000000000000000002625a10000000000000000000000007f05b257ce2199df8c2a9d7e9ff6ebea0eff8abf0000000000000000000000000000000000000000000000000000000000000180000000000000000000000000000000000000000000000000000000000000000000000000000000000000000000000000000000000000000000000000000000400000000000000000000000004200000000000000000000000000000000000006000000000000000000000000833589fcd6edb6e08f4c7c32d4f71b54bda02913",
        "nonce": "0x9",
        "chainId": "0x2105"
      },
      "additionalContracts": [],
      "isFixedGasLimit": false
    }
  ],
  "receipts": [
    {
      "status": "0x1",
      "cumulativeGasUsed": "0x376d034",
      "logs": [
        {
          "address": "0x4200000000000000000000000000000000000006",
          "topics": [
            "0x8c5be1e5ebec7d5bd14f71427d1e84f3dd0314c0f7b2291e5b200ac8c7c3b925",
            "0x0000000000000000000000007f05b257ce2199df8c2a9d7e9ff6ebea0eff8abf",
            "0x000000000000000000000000000000000022d473030f116ddee9f6b43ac78ba3"
          ],
          "data": "0xffffffffffffffffffffffffffffffffffffffffffffffffffffffffffffffff",
          "blockHash": "0x0000000000000000000000000000000000000000000000000000000000000000",
          "blockNumber": "0x27df8d7",
          "blockTimestamp": "0x69864e91",
          "transactionHash": "0x545e4f796c12a990ad37241ac287f51c9d96a8b7cb6c2617bae088f38a2e185d",
          "transactionIndex": "0xee",
          "logIndex": "0x3cb",
          "removed": false
        }
      ],
      "logsBloom": "0x00000000000000000000000000000000000000000000000000040000000000000000000000000000000000100000000000001000800000000000000000200000000020000000000000004000000000000000000000000800000000000000000000000040000000000000000000000000000000000000000000000000000000000000000000000000000000000000000000000000002000000000000000000000020000000000000000000000000000000000000000000000000000000000000000000000000000000000000000000000000000000000000000000000000000000010000000000000000000000000000000000000000000000000000000000000",
      "type": "0x2",
      "transactionHash": "0x545e4f796c12a990ad37241ac287f51c9d96a8b7cb6c2617bae088f38a2e185d",
      "transactionIndex": "0xee",
      "blockHash": "0x0000000000000000000000000000000000000000000000000000000000000000",
      "blockNumber": "0x27df8d7",
      "gasUsed": "0xb4cb",
      "effectiveGasPrice": "0x96618e",
      "blobGasUsed": "0x364c",
      "from": "0x7f05b257ce2199df8c2a9d7e9ff6ebea0eff8abf",
      "to": "0x4200000000000000000000000000000000000006",
      "contractAddress": null,
      "daFootprintGasScalar": "0x8b",
      "l1BaseFeeScalar": "0x8dd",
      "l1BlobBaseFee": "0xbda92a",
      "l1BlobBaseFeeScalar": "0x101c12",
      "l1Fee": "0x1874de603",
      "l1GasPrice": "0xc2d904a",
      "l1GasUsed": "0x640"
    },
    {
      "status": "0x1",
      "cumulativeGasUsed": "0x38a6c9c",
      "logs": [
        {
          "address": "0x833589fcd6edb6e08f4c7c32d4f71b54bda02913",
          "topics": [
            "0x8c5be1e5ebec7d5bd14f71427d1e84f3dd0314c0f7b2291e5b200ac8c7c3b925",
            "0x0000000000000000000000007f05b257ce2199df8c2a9d7e9ff6ebea0eff8abf",
            "0x000000000000000000000000000000000022d473030f116ddee9f6b43ac78ba3"
          ],
          "data": "0xffffffffffffffffffffffffffffffffffffffffffffffffffffffffffffffff",
          "blockHash": "0xea8453c907333ca2d4b8b1cd546b808fb913de2e0b29adafa2baef390942540b",
          "blockNumber": "0x27df8d7",
          "blockTimestamp": "0x69864e91",
          "transactionHash": "0x1c18d905c5996a79984476ccb0f3e7db442bd4cd5a58b7e4c472926febe452ab",
          "transactionIndex": "0xff",
          "logIndex": "0x3e8",
          "removed": false
        }
      ],
      "logsBloom": "0x00000000000000000000000000000000000000000000000000000000000000000000000000000000000000000000100000001000800000000000000000200000000020000000000000004000000000000000000000080800000000000000000000800040000000000000000000000000000000000000000000000000000000000000000000000000000000000000000000000000000000000000000000000000020000000000000000000000000000000000000000000000000000000000000000000000000000000000000000000000000000000000000000000000000000000010000000000000000000000000000000000000000000000000000000000000",
      "type": "0x2",
      "transactionHash": "0x1c18d905c5996a79984476ccb0f3e7db442bd4cd5a58b7e4c472926febe452ab",
      "transactionIndex": "0xff",
      "blockHash": "0xea8453c907333ca2d4b8b1cd546b808fb913de2e0b29adafa2baef390942540b",
      "blockNumber": "0x27df8d7",
      "gasUsed": "0xd9ad",
      "effectiveGasPrice": "0x96618e",
      "blobGasUsed": "0x364c",
      "from": "0x7f05b257ce2199df8c2a9d7e9ff6ebea0eff8abf",
      "to": "0x833589fcd6edb6e08f4c7c32d4f71b54bda02913",
      "contractAddress": null,
      "daFootprintGasScalar": "0x8b",
      "l1BaseFeeScalar": "0x8dd",
      "l1BlobBaseFee": "0xbda92a",
      "l1BlobBaseFeeScalar": "0x101c12",
      "l1Fee": "0x7a6dab53",
      "l1GasPrice": "0xc2d904a",
      "l1GasUsed": "0x640"
    },
    {
      "status": "0x1",
      "cumulativeGasUsed": "0x38b268e",
      "logs": [
        {
          "address": "0x000000000022d473030f116ddee9f6b43ac78ba3",
          "topics": [
            "0xda9fa7c1b00402c17d0161b249b1ab8bbec047c5a52207b9c112deffd817036b",
            "0x0000000000000000000000007f05b257ce2199df8c2a9d7e9ff6ebea0eff8abf",
            "0x0000000000000000000000004200000000000000000000000000000000000006",
            "0x0000000000000000000000007c5f5a4bbd8fd63184577525326123b519429bdc"
          ],
          "data": "0x000000000000000000000000ffffffffffffffffffffffffffffffffffffffff0000000000000000000000000000000000000000000000000000ffffffffffff",
          "blockHash": "0xea8453c907333ca2d4b8b1cd546b808fb913de2e0b29adafa2baef390942540b",
          "blockNumber": "0x27df8d7",
          "blockTimestamp": "0x69864e91",
          "transactionHash": "0xad50b9ab61c90aaa07c03d011d5f3472e0bdd7ca3a5abeea3438ca0105730571",
          "transactionIndex": "0x100",
          "logIndex": "0x3e9",
          "removed": false
        }
      ],
      "logsBloom": "0x00010000000000000000000000000000000000000000000000000000000000000000000000000000000000000000000000001000000000000020000000082000000020000000000000000000000000000000000000000000000000000000000000000040000000000000000000000000000010000000000000000000000000000020000000000000000000000000000000000000000000000000000000000000000000000000000000000000000000000000000000000000000000080000000200000000000004000000000000000000000000000000000040000000000000000000000000000000000000000000000000000000002000000000000000000400",
      "type": "0x2",
      "transactionHash": "0xad50b9ab61c90aaa07c03d011d5f3472e0bdd7ca3a5abeea3438ca0105730571",
      "transactionIndex": "0x100",
      "blockHash": "0xea8453c907333ca2d4b8b1cd546b808fb913de2e0b29adafa2baef390942540b",
      "blockNumber": "0x27df8d7",
      "gasUsed": "0xb9f2",
      "effectiveGasPrice": "0x96618e",
      "blobGasUsed": "0x3878",
      "from": "0x7f05b257ce2199df8c2a9d7e9ff6ebea0eff8abf",
      "to": "0x000000000022d473030f116ddee9f6b43ac78ba3",
      "contractAddress": null,
      "daFootprintGasScalar": "0x8b",
      "l1BaseFeeScalar": "0x8dd",
      "l1BlobBaseFee": "0xbda92a",
      "l1BlobBaseFeeScalar": "0x101c12",
      "l1Fee": "0x801b6bd6",
      "l1GasPrice": "0xc2d904a",
      "l1GasUsed": "0x68a"
    },
    {
      "status": "0x1",
      "cumulativeGasUsed": "0x38be158",
      "logs": [
        {
          "address": "0x000000000022d473030f116ddee9f6b43ac78ba3",
          "topics": [
            "0xda9fa7c1b00402c17d0161b249b1ab8bbec047c5a52207b9c112deffd817036b",
            "0x0000000000000000000000007f05b257ce2199df8c2a9d7e9ff6ebea0eff8abf",
            "0x000000000000000000000000833589fcd6edb6e08f4c7c32d4f71b54bda02913",
            "0x0000000000000000000000007c5f5a4bbd8fd63184577525326123b519429bdc"
          ],
          "data": "0x000000000000000000000000ffffffffffffffffffffffffffffffffffffffff0000000000000000000000000000000000000000000000000000ffffffffffff",
          "blockHash": "0xea8453c907333ca2d4b8b1cd546b808fb913de2e0b29adafa2baef390942540b",
          "blockNumber": "0x27df8d7",
          "blockTimestamp": "0x69864e91",
          "transactionHash": "0x6c62a1bfdc4fcff46de75f51b88bac3f5eb56482a49342ac0ea993625ef7f523",
          "transactionIndex": "0x101",
          "logIndex": "0x3ea",
          "removed": false
        }
      ],
      "logsBloom": "0x00010000000000000000000000000000000000000000000000000000000000000000000000000000000000000000000000001000000000000000000000082000000020000000040000000000000000000000000000000000000000000000000000000040000000000000000000000000010000000000000000000000000000000020000000000000400000000000000000000000000000000000000000000000000000000000000000000000000000000000000000000000000000080000000200000000000000000000000000000000000000000000000040000000000000000000000000000000000000000000000000000000002000000000000000000400",
      "type": "0x2",
      "transactionHash": "0x6c62a1bfdc4fcff46de75f51b88bac3f5eb56482a49342ac0ea993625ef7f523",
      "transactionIndex": "0x101",
      "blockHash": "0xea8453c907333ca2d4b8b1cd546b808fb913de2e0b29adafa2baef390942540b",
      "blockNumber": "0x27df8d7",
      "gasUsed": "0xbaca",
      "effectiveGasPrice": "0x96618e",
      "blobGasUsed": "0x3cd0",
      "from": "0x7f05b257ce2199df8c2a9d7e9ff6ebea0eff8abf",
      "to": "0x000000000022d473030f116ddee9f6b43ac78ba3",
      "contractAddress": null,
      "daFootprintGasScalar": "0x8b",
      "l1BaseFeeScalar": "0x8dd",
      "l1BlobBaseFee": "0xbda92a",
      "l1BlobBaseFeeScalar": "0x101c12",
      "l1Fee": "0x8952fa92",
      "l1GasPrice": "0xc2d904a",
      "l1GasUsed": "0x702"
    },
    {
      "status": "0x1",
      "cumulativeGasUsed": "0x3925474",
      "logs": [
        {
          "address": "0x7c5f5a4bbd8fd63184577525326123b519429bdc",
          "topics": [
            "0xddf252ad1be2c89b69c2b068fc378daa952ba7f163c4a11628f55a4df523b3ef",
            "0x0000000000000000000000000000000000000000000000000000000000000000",
            "0x0000000000000000000000007f05b257ce2199df8c2a9d7e9ff6ebea0eff8abf",
            "0x000000000000000000000000000000000000000000000000000000000014fdc6"
          ],
          "data": "0x",
          "blockHash": "0xea8453c907333ca2d4b8b1cd546b808fb913de2e0b29adafa2baef390942540b",
          "blockNumber": "0x27df8d7",
          "blockTimestamp": "0x69864e91",
          "transactionHash": "0x16b7ccb7b2396b064ecc14db2ab41ed583c53f10b38fffc35bb944a033b8a203",
          "transactionIndex": "0x102",
          "logIndex": "0x3eb",
          "removed": false
        },
        {
          "address": "0x498581ff718922c3f8e6a244956af099b2652b2b",
          "topics": [
            "0xf208f4912782fd25c7f114ca3723a2d5dd6f3bcc3ac8db5af63baa85f711d5ec",
            "0xe8b7f8b16b2ef2121b90c10a6a94d3c52607dfc0cd4db3a7590216545c3b26ac",
            "0x0000000000000000000000007c5f5a4bbd8fd63184577525326123b519429bdc"
          ],
          "data": "0x00000000000000000000000000000000000000000000000000000000000081d8000000000000000000000000000000000000000000000000000000000001e168000000000000000000000000000000000000000000000000000000000000da52000000000000000000000000000000000000000000000000000000000014fdc6",
          "blockHash": "0xea8453c907333ca2d4b8b1cd546b808fb913de2e0b29adafa2baef390942540b",
          "blockNumber": "0x27df8d7",
          "blockTimestamp": "0x69864e91",
          "transactionHash": "0x16b7ccb7b2396b064ecc14db2ab41ed583c53f10b38fffc35bb944a033b8a203",
          "transactionIndex": "0x102",
          "logIndex": "0x3ec",
          "removed": false
        },
        {
          "address": "0x4200000000000000000000000000000000000006",
          "topics": [
            "0xddf252ad1be2c89b69c2b068fc378daa952ba7f163c4a11628f55a4df523b3ef",
            "0x0000000000000000000000007f05b257ce2199df8c2a9d7e9ff6ebea0eff8abf",
            "0x000000000000000000000000498581ff718922c3f8e6a244956af099b2652b2b"
          ],
          "data": "0x00000000000000000000000000000000000000000000000000000000000003e8",
          "blockHash": "0xea8453c907333ca2d4b8b1cd546b808fb913de2e0b29adafa2baef390942540b",
          "blockNumber": "0x27df8d7",
          "blockTimestamp": "0x69864e91",
          "transactionHash": "0x16b7ccb7b2396b064ecc14db2ab41ed583c53f10b38fffc35bb944a033b8a203",
          "transactionIndex": "0x102",
          "logIndex": "0x3ed",
          "removed": false
        },
        {
          "address": "0x833589fcd6edb6e08f4c7c32d4f71b54bda02913",
          "topics": [
            "0xddf252ad1be2c89b69c2b068fc378daa952ba7f163c4a11628f55a4df523b3ef",
            "0x0000000000000000000000007f05b257ce2199df8c2a9d7e9ff6ebea0eff8abf",
            "0x000000000000000000000000498581ff718922c3f8e6a244956af099b2652b2b"
          ],
          "data": "0x000000000000000000000000000000000000000000000000000000000026259a",
          "blockHash": "0xea8453c907333ca2d4b8b1cd546b808fb913de2e0b29adafa2baef390942540b",
          "blockNumber": "0x27df8d7",
          "blockTimestamp": "0x69864e91",
          "transactionHash": "0x16b7ccb7b2396b064ecc14db2ab41ed583c53f10b38fffc35bb944a033b8a203",
          "transactionIndex": "0x102",
          "logIndex": "0x3ee",
          "removed": false
        }
      ],
      "logsBloom": "0x00000000000000000000000000004000000000000000000000040000000000000020000020000000000000100000100000001000000000000000000000002000000020000000000000000008000000000000000000080000000000000000000000840040020000000000000000000800040000000000000000000010000000000000000001004000000000020000000000000000002000000000000400000000004004000000000008000000000000000000000000000000000000000000000200000002000001000000000000000000000800000000000000000000000020040010000000000000000000000000000004000400002000000000000000000000",
      "type": "0x2",
      "transactionHash": "0x16b7ccb7b2396b064ecc14db2ab41ed583c53f10b38fffc35bb944a033b8a203",
      "transactionIndex": "0x102",
      "blockHash": "0xea8453c907333ca2d4b8b1cd546b808fb913de2e0b29adafa2baef390942540b",
      "blockNumber": "0x27df8d7",
      "gasUsed": "0x6731c",
      "effectiveGasPrice": "0x96618e",
      "blobGasUsed": "0x8849",
      "from": "0x7f05b257ce2199df8c2a9d7e9ff6ebea0eff8abf",
      "to": "0x7c5f5a4bbd8fd63184577525326123b519429bdc",
      "contractAddress": null,
      "daFootprintGasScalar": "0x8b",
      "l1BaseFeeScalar": "0x8dd",
      "l1BlobBaseFee": "0xbda92a",
      "l1BlobBaseFeeScalar": "0x101c12",
      "l1Fee": "0x13353b511",
      "l1GasPrice": "0xc2d904a",
      "l1GasUsed": "0xfb0"
    }
  ],
  "libraries": [],
  "pending": [],
  "returns": {},
  "timestamp": 1770409618315,
  "chain": 8453,
  "commit": "5055fae"
}