{
  "transactions": [
    {
      "hash": "0x40044e63a15ec61ab6d39be75caf35c206cccb6be80c4378a7d55eb9f87f077e",
      "transactionType": "CALL",
      "contractName": null,
      "contractAddress": "0x498581ff718922c3f8e6a244956af099b2652b2b",
      "function": "initialize((address,address,uint24,int24,address),uint160)",
      "arguments": [
        "(0x4200000000000000000000000000000000000006, 0x833589fCD6eDb6E08f4c7C32D4f71b54bdA02913, 3000, 60, 0x825Fc7Ac1E5456674D7dBbB4D12467E8253740C0)",
        "3961408125713216879677197516800"
      ],
      "transaction": {
        "from": "0x7f05b257ce2199df8c2a9d7e9ff6ebea0eff8abf",
        "to": "0x498581ff718922c3f8e6a244956af099b2652b2b",
        "gas": "0x127b5",
        "value": "0x0",
        "input": "0x6276cbbe0000000000000000000000004200000000000000000000000000000000000006000000000000000000000000833589fcd6edb6e08f4c7c32d4f71b54bda029130000000000000000000000000000000000000000000000000000000000000bb8000000000000000000000000000000000000000000000000000000000000003c000000000000000000000000825fc7ac1e5456674d7dbbb4d12467e8253740c00000000000000000000000000000000000000032000000000000000000000000",
        "nonce": "0x4",
        "chainId": "0x2105"
      },
      "additionalContracts": [],
      "isFixedGasLimit": false
    }
  ],
  "receipts": [
    {
      "status": "0x1",
      "cumulativeGasUsed": "0x1560931",
      "logs": [
        {
          "address": "0x498581ff718922c3f8e6a244956af099b2652b2b",
          "topics": [
            "0xdd466e674ea557f56295e2d0218a125ea4b4f0f6f3307b95f85e6110838d6438",
            "0xe8b7f8b16b2ef2121b90c10a6a94d3c52607dfc0cd4db3a7590216545c3b26ac",
            "0x0000000000000000000000004200000000000000000000000000000000000006",
            "0x000000000000000000000000833589fcd6edb6e08f4c7c32d4f71b54bda02913"
          ],
          "data": "0x0000000000000000000000000000000000000000000000000000000000000bb8000000000000000000000000000000000000000000000000000000000000003c000000000000000000000000825fc7ac1e5456674d7dbbb4d12467e8253740c0000000000000000000000000000000000000003200000000000000000000000000000000000000000000000000000000000000000000000000000000000131a4",
          "blockHash": "0x6205ea3cb7196e6c98569afcd1d90b542a67712f19044f2743c8551c6d14f060",
          "blockNumber": "0x27df8b4",
          "blockTimestamp": "0x69864e4b",
          "transactionHash": "0x40044e63a15ec61ab6d39be75caf35c206cccb6be80c4378a7d55eb9f87f077e",
          "transactionIndex": "0x73",
          "logIndex": "0x137",
          "removed": false
        }
      ],
      "logsBloom": "0x00000000000000000000000000004000000000000000000000000000000000000000000000000000000000000000000000000000000000000020000000000000000000000000040000000000000000000000000000000000000000000000000000000000000000000000000000000000010010000000000000000000000000000000000000004008400000000000000000000001000000000000000000200000000000000000000000000000000000000000000000000000000000000000000000000000000004000000000000000000000800000000000000000000000000040010000000000000000000000000000000000400000000000000000000000000",
      "type": "0x2",
      "transactionHash": "0x40044e63a15ec61ab6d39be75caf35c206cccb6be80c4378a7d55eb9f87f077e",
      "transactionIndex": "0x73",
      "blockHash": "0x6205ea3cb7196e6c98569afcd1d90b542a67712f19044f2743c8551c6d14f060",
      "blockNumber": "0x27df8b4",
      "gasUsed": "0xca32",
      "effectiveGasPrice": "0x99e34f",
      "blobGasUsed": "0x4837",
      "from": "0x7f05b257ce2199df8c2a9d7e9ff6ebea0eff8abf",
      "to": "0x498581ff718922c3f8e6a244956af099b2652b2b",
      "contractAddress": null,
      "daFootprintGasScalar": "0x8b",
      "l1BaseFeeScalar": "0x8dd",
      "l1BlobBaseFee": "0xd4f84a",
      "l1BlobBaseFeeScalar": "0x101c12",
      "l1Fee": "0x8878644c",
      "l1GasPrice": "0xd65e1a0",
      "l1GasUsed": "0x851"
    }
  ],
  "libraries": [],
  "pending": [],
  "returns": {},
  "timestamp": 1770409547244,
  "chain": 8453,
  "commit": "5055fae"
}